:100000000C9403020C9420020C9420020C94200205
:100010000C9420020C9420020C9420020C942002D8
:100020000C9420020C9445030C9420020C942002A2
:100030000C9420020C94BC0E0C9420020C94200210
:100040000C9420020C9420020C9420020C942002A8
:100050000C9420020C9420020C9420020C94200298
:100060000C9420020C94200200407A10F35A00A055
:10007000724E18090010A5D4E80000E87648170071
:1000800000E40B54020000CA9A3B000000E1F505B1
:10009000000080969800000040420F000000A086FB
:1000A00001000000102700000000E803000000002D
:1000B0006400000000000A000000000001000000D1
:1000C00000002C76D888DC674F0823DFC1DFAE59EB
:1000D000E1B1B796E5E3E453C63AE651997696E87E
:1000E000E6C28426EB898C9B62ED407C6FFCEFBC02
:1000F0009C9F40F2BAA56FA5F490055A2AF75C932D
:100100006B6CF9676DC11BFCE0E40D47FEF520E662
:10011000B500D0ED902E0300943577050080841E45
:10012000080000204E0A000000C80C333333330FA0
:10013000986E12831141EF8D2114893BE65516CF3D
:10014000FEE6DB18D1844B381BF77C1D901DA4BB49
:10015000E424203284725E228100C9F124ECA1E5FE
:100160003D274D617279204861642061204C69749B
:10017000746C65204C616D6200000000000000009E
:10018000000000000000000000000000000000006F
:100190000000000002000100000001000200020057
:1001A00002000A000100010001000A000200030031
:1001B00003000A000200010000000100020002002A
:1001C00002000200010001000200010000000A001C
:1001D0000A000A000A000A000A000A000A000000D9
:1001E000000000000000000000000000000000000F
:1001F0000000000000000000210043444547001FAC
:10020000003F05FF07E2FF00000400526F77205215
:100210006F7720526F7720596F757220426F61742B
:1002200000000000000000000000000000000000CE
:1002300000000000000000000000000000000000BE
:10024000000000010002000200010002000300049F
:10025000000A000000000000000400040004000286
:1002600000020002000A000A000A000A000A000A4E
:10027000000A000A0000000000000000000000006A
:10028000000000000000000000000000000000006E
:10029000000000000000000000000000000000005E
:1002A00000250043444546471F003F051F00E00767
:1002B000E2FF0500486F742043726F73732042752C
:1002C0006E7300000000000000000000000000004D
:1002D000000000000000000000000000000000001E
:1002E0000000000000000200010000000A000200FF
:1002F000010000000A0000000000000000000100F2
:100300000100010001000200010000000A000A00D3
:100310000A000A000A000A000A000A000A00000097
:1003200000000000000000000000000000000000CD
:1003300000000000000000000000000000000000BD
:10034000000000000000000000001C0047414200C7
:1003500000E2FF00F81FF80000000003004A696E89
:10036000676C652042656C6C730000000000000043
:10037000000000000000000000000000000000007D
:10038000000000000000000000000000000000026B
:1003900000020002000A000200020002000A00023D
:1003A0000004000000010002000A000A000A000325
:1003B0000003000300030003000200020002000229
:1003C0000001000100020001000A0004000A000A06
:1003D000000A000A000A000A0000000000000000F5
:1003E000000000000000000000000000000000000D
:1003F000000000250043444546471F003F05FF0716
:10040000E007E2FF050011241FBECFEFD8E0DEBFFA
:10041000CDBF15E0A0E0B1E0ECE2F8E302C005904A
:100420000D92A039B107D9F726E0A0E9B5E001C0E7
:100430001D92AC37B207E1F70E94D1130C94141C43
:100440000C940000F8948CE793E00E949104329B96
:10045000FECF789484E893E00E9491040C943903D1
:10046000329B08950C9422020F931F93CF93DF9336
:10047000CDB7DEB778948DB79EB7895A91090FB67C
:10048000F8949EBF0FBE8DBFADB7BEB7119689EA77
:10049000FE01379601900D928A95E1F70E946F0553
:1004A000C356DF4F08811981CD59D0400B5F1F4FD4
:1004B0000FB6F894DEBF0FBECDBF08C00E94D402B5
:1004C0008091980590919905019799F080919605F2
:1004D0009091970508171907D4F1329BEFCF0E942E
:1004E00022020E94D402809198059091990501976B
:1004F00069F710929905109298058DB79EB7895AA1
:1005000091090FB6F8949EBF0FBE8DBFADB7BEB7B1
:10051000119689EAFE01379601900D928A95E1F7CE
:100520000E94B4059FE728E381E09150204080407D
:10053000E1F700C000000FB6F894DEBF0FBECDBFDC
:1005400080919605909197050817190734F6F8944D
:100550001092970510929605DF91CF911F910F9100
:100560000895AC0160919005709191059C01261B46
:10057000370BC901865A9F4F6A35710524F4453BF4
:10058000510574F408956E3021E07207DCF3443BAA
:100590005105C4F7CA01861B970B8E539E4F0895D1
:1005A000C9018E509140089580E090E00E94B70903
:1005B00080E090E00E94B8082091FB053091FC0596
:1005C0004091900550919105C901841B950B865A65
:1005D0009F4F4A355105BCF4253B31051CF5209150
:1005E000BB053091BC0537FD0DC02091BB05309196
:1005F000BC052D3D3540A4F40E94210F9093950534
:100600008093940508954E3061E0560744F3243BEF
:1006100031052CF7241B350BC9018E539E4FDFCFBC
:100620000C94EA0E241B350BC9018E509140D7CF94
:10063000F8940E946F0E89E20E94180A8CE00E94D2
:10064000A90878942FEF83ED90E3215080409040EB
:10065000E1F700C0000088E998E09093890080935A
:10066000880080EB94E090938B0080938A000C9438
:10067000B7098091FB059091FC05909391058093BB
:10068000900508953A98399808951F920F920FB6E1
:100690000F9211248F939F9381E090E0909399059E
:1006A00080939805B89A9F918F910F900FBE0F90ED
:1006B0001F901895F894E1EBF0E081E0808382E0F0
:1006C000808384E08083E0E7F0E080818160808344
:1006D00008950F931F9380E090E00E94F60D89E14A
:1006E000E4E9F3E0ADE2B6E001900D928A95E1F71E
:1006F00002EE1FEF2CED30E040E550E068EC70E0DA
:1007000080E090E00E94E90D0FE110E024E031E08C
:1007100040EA50E060EF70E081E590E00E94E90D72
:100720000FE118EF28E131E040EF50E064E071E0C4
:1007300081EA90E00E94E90D0FEF17E02CED30E028
:1007400040E451E068EC70E081EF90E00E94E90D38
:1007500000E018EF28EC30E040E951E064EB70E095
:1007600081E491E00E94E90D00EE17E028E131E01C
:1007700040EE51E064E071E081E991E00E94E90D12
:1007800000E010E02FEF3FEF4DE256E064E670E04E
:1007900082E390E00E941F0E2FEF83E294EF21503E
:1007A00080409040E1F700C0000080E090E01F91A1
:1007B0000F910C94F60D2F923F924F925F926F9291
:1007C0007F928F929F92AF92BF92CF92DF92EF92E1
:1007D000FF920F931F93CF93DF93CDB7DEB72A9786
:1007E0000FB6F894DEBF0FBECDBFCA53DF4F88806F
:1007F0009980C65CD04080E090E00E94F60D18140D
:1008000019040CF075C0CE0184549F4F9C838B83D8
:10081000DE01A954BF4FBA83A98380EEC82EDD2420
:10082000D394E12CF12CC401092C000CAA0BBB0BB6
:100830008F839887A987BA87AB81BC816D907D90A3
:10084000BC83AB83F7013196FE83ED83C601B4010F
:100850000E94F813FB013197C601805E9140B401FC
:100860000E94F813CB01830125E330E0AF0160E083
:1008700070E00E94E90DA981BA81AD90BA83A98385
:100880000A2C000CBB08B701FF0C880B990B0E94C7
:10089000871520E030E040E05FE30E94711420E023
:1008A00030E040EF53E40E946B161B012C016F8176
:1008B000788589859A850E9487159B01AC01C201C4
:1008C000B1010E94DD140E945615DC01CB012FEF0F
:1008D0003FEFA50162E270E00E94660CB0E2CB1A25
:1008E000BEEFDB0AED80FE808E149F0409F0A4CFDA
:1008F0002A960FB6F894DEBF0FBECDBFDF91CF9121
:100900001F910F91FF90EF90DF90CF90BF90AF902D
:100910009F908F907F906F905F904F903F902F901F
:1009200008950F931F939F938F938DE296E09F936B
:100930008F930E94F81600E010E02FEF3FEF4DE29A
:1009400056E06CED70E086E990E00E941F0E0F907B
:100950000F900F900F901F910F9108956F927F92BB
:100960008F929F92AF92BF92CF92DF92EF92FF92BF
:100970000F931F93CF93DF93CDB7DEB7C854DF4FEC
:1009800068807980C85BD04080E090E00E94F60DDE
:100990008FE1EDEAF3E0ADE2B6E001900D928A95C9
:1009A000E1F700E010E02FEF3FEF4DE256E062E2AA
:1009B00071E089E190E00E941F0E8BE1ECECF3E026
:1009C000ADE2B6E001900D928A95E1F72FEF3FEF8F
:1009D0004DE256E064E071E089E190E00E941F0E74
:1009E00089E1E7EEF3E0ADE2B6E001900D928A9581
:1009F000E1F72FEF3FEF4DE256E066EE70E089E160
:100A000090E00E941F0E16141704BCF54E018EEAEA
:100A1000880E911C6E0199EAC90ED11CE8E96E0E90
:100A2000711C81E190E08C0F9D1F680E791E86E994
:100A3000E82EF12CF401A190B1904F01A701485D7F
:100A40005F4F85012AEA30E068E270E0C7010E944A
:100A5000E90DF60141916F01042E000C550B2FEFAB
:100A60003FEF60EA70E0C7010A960E94660CF2E36D
:100A7000EF0EF11CC614D704E9F6329BFECFDF91CE
:100A8000CF911F910F91FF90EF90DF90CF90BF908B
:100A9000AF909F908F907F906F90089586179707E3
:100AA0000CF4BC01CB010895CF93DF93CDB7DEB733
:100AB000C455DF4F88819981CC5AD040E5E1F6E0FA
:100AC00091838083958384839187808795878487AA
:100AD000918B808B958B848BDF91CF910895CF93F1
:100AE000DF93CDB7DEB7C556DF4F28813981CB59AB
:100AF000D04010929B0510929A05E5E1F6E08481C2
:100B000095819183808386819781938382833496B4
:100B100086E0E932F80799F780919605909197055C
:100B200082179307F4F4FC017996EE0FFF1F25E07E
:100B300030E02C0F3D1FE20FF31F208131813093F5
:100B40002A06209329062FE331E030932C062093C8
:100B50002B0601969093970580939605DF91CF9190
:100B600008952AE030E0EBCF2F923F924F925F92B0
:100B70006F927F928F929F92AF92BF92CF92DF92AD
:100B8000EF92FF920F931F93CF93DF93CDB7DEB712
:100B9000C95AD1090FB6F894DEBF0FBECDBFCC5AEB
:100BA000DE4F28803980C455D140CB59DE4FA88014
:100BB000B980C556D14055E1C52E56E0D52E7601F7
:100BC00060EE462E552453940BC08A309105C1F037
:100BD000B4E0EB0EF11CEDE2EE16E6E0FE06D1F11C
:100BE000D70112962D913C911397F90131971396E5
:100BF000FC93EE9312978D919C918A159B052CF78F
:100C0000E633F1050CF04CC00196849D8001859D72
:100C1000100D949D100D11249F01225E3F4FC801BD
:100C2000B5010E94F8134B017D96C801805E91408A
:100C3000B5010E94F813CB0100E010E0A401BF0150
:100C40000E94E90DB4E0EB0EF11CEDE2EE16E6E0D9
:100C5000FE0631F680919A0590919B05019690933E
:100C60009B0580939A05C19709F44FC0C755DF4F84
:100C70000FB6F894DEBF0FBECDBFDF91CF911F91AD
:100C80000F91FF90EF90DF90CF90BF90AF909F902B
:100C90008F907F906F905F904F903F902F9008952E
:100CA000AC014F5F5F4F449D4001459D900C549DAA
:100CB000900C1124DC01AA0FBB1F8EEB90E08C0F6F
:100CC0009D1FA80FB91FA356BF4F0D911C91C401C2
:100CD000B5010E94F8133B01C401805E9140B5014B
:100CE0000E94F813CB01A301BF010E94E90DD701B7
:100CF0001296ED91FC911397EC32B1E0FB070CF0EA
:100D000067CFD7018D919C917FCF89EAFE01E25494
:100D1000FF4FDE01119601900D928A95E1F7109236
:100D20009B0510929A05D60114968D919C9115976A
:100D300011969C938E9316968D919C91179713966E
:100D40009C938E931297B4E0CB0ED11CE9E2CE16A1
:100D5000E6E0DE0641F780919605909197058215B1
:100D6000930594F02AE030E030932A062093290678
:100D70002FE331E030932C0620932B0601969093BD
:100D800097058093960572CFFC017996EE0FFF1FB1
:100D900021E030E02C0F3D1FE20FF31F2081318155
:100DA000E3CF4F925F926F927F928F929F92AF921A
:100DB000BF92CF92DF92EF92FF920F931F93CF9348
:100DC000DF932C015B0182E1E0E0F4E0ADE2B6E00C
:100DD00001900D928A95E1F700E010E02FEF3FEFD0
:100DE0004DE256E06EE071E089E190E00E941F0E56
:100DF0001A141B047CF532E6E32E31E0F32E4CEDA1
:100E0000C42ED12CC0E0D0E05DE2852E56E0952EB8
:100E1000FF92EF929F928F920E94F8160F900F9080
:100E20000F900F90209709F484C000E010E02FEF9E
:100E30003FEF4DE256E0B60189E190E00E941F0EBF
:100E4000219629EAE20EF11C8EE1C81AD108AC16EF
:100E5000BD06F1F6812C912C8DE2682E86E0782E6D
:100E600002C0319921C0329BFCCF89EA889DF001F4
:100E7000899DF00D1124EE59FE4FD20101900D9283
:100E80008A95E1F7C201DF91CF911F910F91FF90F9
:100E9000EF90DF90CF90BF90AF909F908F907F901A
:100EA0006F905F904F9008959FEF891A990AA81448
:100EB000B904E1F12FEF81EE94E0215080409040A1
:100EC000E1F700C000001A141B046CF692E6E92E4C
:100ED00091E0F92E2CEDC22ED12CC0E0D0E016C04E
:100EE00000E010E02FEF3FEF4DE256E0B60189E160
:100EF00090E00E941F0E219629EAE20EF11C8EE17D
:100F0000C81AD108AC16BD0609F4ADCFFF92EF9216
:100F10007F926F920E94F8160F900F900F900F9093
:100F20008C169D06E9F600E018EFDCCF812C912CA1
:100F3000C1CF00E018EF7BCF0E9415083A9839988E
:100F4000F894E1EBF0E081E0808382E0808384E04C
:100F50008083E0E7F0E0808181608083089507C0AE
:100F6000EFE9FFE03197F1F700C00000019700972B
:100F7000B9F708955C988EBD0DB407FEFDCF5C9A5D
:100F800008958EBD0DB407FEFDCF08955C989EBDFB
:100F90000DB407FEFDCF8EBD0DB407FEFDCF5C9AEC
:100FA00008959EBD0DB407FEFDCF8EBD0DB407FEA6
:100FB000FDCF0895DC015C98962F992389F15D9807
:100FC0008C918EBD0DB407FEFDCF11968C911197BB
:100FD0005D9AFD0132969F01280F311DE217F3073C
:100FE00041F081918EBD0DB407FEFDCFE217F307EE
:100FF000C1F7DF0111962081222381F02F3F91F06C
:1010000030E021503109EFE9FFE03197F1F700C0FE
:101010000000A90121503109452BA9F7915079F61B
:101020005C9A089523EF31E0EECF1F93CF93DF93C7
:1010300000D000D0CDB7DEB7559A579A549A239A6C
:10104000259A569A84B5836884BD85B5846085BD2C
:101050008FE787BD2FEF80E792E0215080409040DE
:10106000E1F700C000005F9A80E58CBD11E01DBD76
:101070008FE19EE40197F1F700C0000060E180E09D
:1010800091E00E94DA0786E389831A8380E68B83E6
:101090001C8261E0CE0101960E94DA070F900F904A
:1010A0000F900F90DF91CF911F910895CF93DF9311
:1010B000CDB7DEB761970FB6F894DEBF0FBECDBFD8
:1010C000EAE2E983E4E0EA839B838C835D834E83D9
:1010D0001F828BE28887E9877A876B873C872D8719
:1010E0001E868CE28F87188A85E0898B63E0CE01AB
:1010F00001960E94DA0761960FB6F894DEBF0FBE24
:10110000CDBFDF91CF91089587BD0895CF93DF9331
:1011100000D000D0CDB7DEB7837081508330B8F4F3
:10112000E82FF0E0EF58FE4F808196E3998391E03D
:101130009A838B831C8261E0CE0101960E94DA07BC
:101140000F900F900F900F90DF91CF91089580EC4A
:10115000ECCF8093A50560E087E00E94810B60E002
:101160008BE30E94810B6091A5058DE30C94810BAC
:1011700068E088E20E949A0A80E00E94DE0A90936A
:10118000AD058093AC0580E00E94DE0A9093FA05DD
:101190008093F90581E00E94DE0A9093BC0580935C
:1011A000BB05089580E090E00E94B80860E08DE300
:1011B0000E94810B65E588E20E94580A8091AC0587
:1011C0009091AD0560E00E94770A8091F9059091B9
:1011D000FA0560E00E94770A8091BB059091BC05FA
:1011E00061E00E94770A6091A5058DE30C94810B64
:1011F0006EE088E20E949A0A80E00E94DE0A9093E4
:1012000014068093130680E00E94DE0A9093120673
:101210008093110681E00E94DE0A9093FE05809380
:10122000FD05089580E090E00E94F80860E08DE3FD
:101230000E94810B6BE588E20E94580A8091130698
:101240009091140660E00E94770A809111069091B7
:10125000120660E00E94770A8091FD059091FE05DC
:1012600061E00E94770A6091A5058DE30C94810BE3
:1012700064E188E20E949A0A80E00E94DE0A90936C
:10128000B1058093B00580E00E94DE0A9093BE0510
:101290008093BD0581E00E94DE0A9093AB058093A8
:1012A000AA05089568E088E20E949A0A80E00E94F8
:1012B000DE0A9093AD058093AC0580E00E94DE0AC3
:1012C0009093FA058093F90580E00E94DE0A9093DE
:1012D000BC058093BB0580E00E94DE0A9093140653
:1012E0008093130680E00E94DE0A9093120680939A
:1012F000110680E00E94DE0A9093FE058093FD05B2
:1013000080E00E94DE0A9093B1058093B00580E0F2
:101310000E94DE0A9093BE058093BD0580E00E9486
:10132000DE0A9093AB058093AA05089560E288E2F7
:101330000E949A0A80E00E94DE0A9093A0058093A2
:101340009F0580E00E94DE0A9093F8058093F705E0
:1013500080E00E94DE0A9093A7058093A60581E0B5
:101360000E94DE0A909304068093030608956AE1C2
:1013700088E20E949A0A80E00E94DE0A97FD2FC050
:101380009595879595958795959587959595879545
:101390009093FC058093FB0580E00E94DE0A97FD98
:1013A00022C095958795959587959595879595955F
:1013B0008795909308068093070681E00E94DE0AD5
:1013C00097FD0FC0959587959595879595958795E8
:1013D00095958795909306068093050608950F9638
:1013E000CFCF0F96EFCF0F96DCCF0E94B709809139
:1013F000FB059091FC059093AF058093AE0580911D
:101400000706909108069093A9058093A8058091FE
:1014100005069091060690930A06809309060895A2
:101420008091BC0087FFFCCF8091B900887F089530
:1014300097B1906397B998B19F7C98B997B19F7C09
:1014400097B9E9EBF0E090819C7F908398E49093CA
:10145000B80094E09093BC008093B6050895809303
:10146000B60508959091BC009B74946A9093BC005B
:101470009091BC0097FFFCCF9091B605990F909387
:10148000BB009091BC009B70946C9093BC009091B9
:10149000BC0097FFFCCF8093BB008091BC008B7495
:1014A00084688093BC008091BC0087FFFCCF0895C6
:1014B0008093B605862F0E94320A8091B900089564
:1014C0008093BB008091BC008B7484688093BC00C7
:1014D0008091BC0087FFFCCF613031F48091BC006B
:1014E0008B7484698093BC008091BC0008958093C4
:1014F000BB008091BC008B7484688093BC00809199
:10150000BC0087FFFCCF9093BB008091BC008B7424
:1015100084688093BC008091BC0087FFFCCF613061
:1015200031F48091BC008B7484698093BC008091FD
:10153000BC0008958093B605862F0E94320A8091E0
:10154000BC008B74846A8093BC008091BC0087FFD0
:10155000FCCF8091B605880F81608093BB0080919D
:10156000BC008B7484688093BC008091BC0087FFB2
:10157000FCCF8091BC000895813069F08091BC005F
:101580008B70846C8093BC008091BC0087FFFCCF83
:101590008091BB0008958091BC008B70846880931B
:1015A000BC008091BC0087FFFCCF8091BC008B7495
:1015B00084698093BC008091BB0008959091BC0029
:1015C0009B70946C9093BC009091BC0097FFFCCFF3
:1015D0002091BB0030E0813081F09091BC009B7085
:1015E000946C9093BC009091BC0097FFFCCF8091CD
:1015F000BB00A901582BCA0108958091BC008B70D3
:1016000084688093BC009091BC0097FFFCCF8091D0
:10161000BC008B7484698093BC008091BB00A901DD
:10162000582BCA0108950E94320A8091BC008B7425
:10163000846A8093BC008091BC0087FFFCCF8091BE
:10164000B605880F81608093BB008091BC008B74CD
:1016500084688093BC008091BC0087FFFCCF8091A0
:10166000BC008B7084688093BC008091BC0087FFB5
:10167000FCCF8091BC008B7484698093BC00809106
:10168000BB0008950E94320A8091BC008B74846A6A
:101690008093BC008091BC0087FFFCCF8091B60591
:1016A000880F81608093BB008091BC008B7484683C
:1016B0008093BC008091BC0087FFFCCF8091BC0070
:1016C0008B70846C8093BC008091BC0087FFFCCF42
:1016D0002091BB0030E09091BC009B709468909387
:1016E000BC009091BC0097FFFCCF8091BB00909113
:1016F000BC009B7494699093BC00A901582BCA014B
:101700000895CF93C62F0E94320AC093BB008091E8
:10171000BC008B7484688093BC008091BC0087FF00
:10172000FCCF8091BC008B7484698093BC00809155
:10173000BC00CF910895CF93DF93D62FC72F0E947F
:10174000320AD093BB008091BC008B748468809374
:10175000BC008091BC0087FFFCCFC093BB00809190
:10176000BC008B7484688093BC008091BC0087FFB0
:10177000FCCF8091BC008B7484698093BC00809105
:10178000BC00DF91CF9108958F929F92AF92BF924C
:10179000CF92DF92EF92FF920F931F93CF93DF933D
:1017A000D82FC92F5B014A01413E514020F090EEF5
:1017B000892E9924939479012134314020F080E4DA
:1017C000E82EFF24F3949701A401B5018D2F9C2FDF
:1017D0000E9456085C98CD2EDC2E8FEF881A980A4E
:1017E000C814D904A0F48FEFE81AF80AAE14BF04A5
:1017F00040F4E501C8010E94D1072196CE15DF050E
:10180000C8F38FEFC81AD80AC814D90478F35C9AC1
:10181000DF91CF911F910F91FF90EF90DF90CF90CC
:10182000BF90AF909F908F900895FF920F931F935A
:10183000CF93DF93282F70E06E5F7F4F3FE3369F9B
:10184000C001379F900D1124CFEFD0E0BE010E9460
:10185000F8138B01000F111F02951295107F1027AE
:10186000007F102750E04C5F5F4F9FE1F92EF49E00
:10187000C001F59E900D1124BE010E94F813062BA5
:10188000172B30E02C5F3F4FF29EC001F39E900D6E
:101890001124BE010E94F813F62FFF0FFF0FFF0F58
:1018A000E0E0C8018E2B9F2BDF91CF911F910F910C
:1018B000FF900895CF93DF93EA019B01AC010E9452
:1018C0005608CE01DF91CF910C94C6072F923F921C
:1018D0004F925F926F927F928F929F92AF92BF9240
:1018E000CF92DF92EF92FF920F931F93CF93DF93EC
:1018F000CDB7DEB72A970FB6F894DEBF0FBECDBFC7
:10190000E0EEF1E0E81BF90B769708F475C0E0E42F
:10191000F1E0E61BF70B769708F46EC02801190179
:101920007C836B839A01220F331F220F331F420FD8
:10193000531F9A0127523F4F3A8329835C013EE0AF
:10194000A30EB11C3C01ECE06E0E711C9C012150F9
:1019500031093E832D83CB01039798878F83E981DB
:10196000FA818290FA83E983082C000C9908CF80D1
:10197000D884EB80FC8021E030E03A8729871DC0C5
:10198000A114B10451F0E114F10439F0810197017F
:10199000A501B601C3010E94C40B29853A852F5FBA
:1019A0003F4F3A87298733E0E31AF10883E0C81AEA
:1019B000D108E985FA85399799F089859A85019743
:1019C000F40102C0F695E7958A95E2F7E0FDD8CFDD
:1019D000A114B10411F3E114F104F9F28201D7CF9B
:1019E000F3E0AF1AB10823E0621A71088D819E817D
:1019F000A816B90609F0B3CF2A960FB6F894DEBF41
:101A00000FBECDBFDF91CF911F910F91FF90EF904F
:101A1000DF90CF90BF90AF909F908F907F906F900E
:101A20005F904F903F902F9008952F923F924F924A
:101A30005F926F927F928F929F92AF92BF92CF925E
:101A4000DF92EF92FF920F931F93CF93DF9300D01B
:101A500000D000D0CDB7DEB71C016B015E834D8393
:101A6000290138014C01841A950A9A01280F391F5F
:101A70003C832B83CB01841B950B9A8389838A013A
:101A8000060F171F98014B815C81BC01C4010E94A5
:101A900056085C988B819C81881599050CF442C08E
:101AA0002D813E81229F5001239FB00CB00C112448
:101AB00089819A81081719076CF1C4018219930969
:101AC000889F7001899FF00CF00C112429813A81C4
:101AD0003E832D830CC0C2010E94D1072D813E811F
:101AE0002F5F3F4F3E832D83021713079CF02D81FC
:101AF0003E812C193D09229FC001239F900D900D1E
:101B000011248E0D9F1DA816B90628F7C3010E9447
:101B1000D107E4CF3FEF831A930A8B819C8188150C
:101B2000990534F65C9A26960FB6F894DEBF0FBE80
:101B3000CDBFDF91CF911F910F91FF90EF90DF907C
:101B4000CF90BF90AF909F908F907F906F905F905D
:101B50004F903F902F900895AF92BF92CF92DF9217
:101B6000EF92FF920F931F93CF93DF937C016A0153
:101B7000CA018E199F09A901461B570BBA010E9481
:101B8000F813CE14DF04D4F05B01E701CE018E1907
:101B90009F098A9DB0018B9D700D9A9D700D112437
:101BA0006C0F7D1F9B01AE01CE010E945608C8013B
:101BB0000E94C6072196CC16DD0644F7DF91CF912F
:101BC0001F910F91FF90EF90DF90CF90BF90AF905B
:101BD00008950F931F934115510529F021153105E3
:101BE00011F00E94C40B1F910F910895EF92FF9284
:101BF0000F931F93CF93DF938C012FE331E04FEDD1
:101C000051E060E070E080E090E00E9456085C984F
:101C100080EEE82EFF24F394C0E4D1E0C8010E94D6
:101C2000D1072197D9F781E0E81AF108A9F75C9A62
:101C3000DF91CF911F910F91FF90EF9008954F92F8
:101C40005F926F927F928F929F92AF92BF92CF924C
:101C5000DF92EF92FF920F931F93CF93DF93EC01EC
:101C60004B016A01390128015A01E12CF12C10C005
:101C7000CE012F96F50141915F01042E000C550B0A
:101C800082019301B4010E94660CFFEFEF1AFF0A74
:101C9000F60101900020E9F73197EC19FD09EE16E5
:101CA000FF0660F4CC3D81E0D80710F3EBE18E1A1B
:101CB0009108CFE0D0E080E090E0DCCFDF91CF91E1
:101CC0001F910F91FF90EF90DF90CF90BF90AF905A
:101CD0009F908F907F906F905F904F9008958AE5CE
:101CE00090E09093F6058093F50510929E05E0E84C
:101CF000F0E08081826A808380818E7F8083E1E84A
:101D0000F0E0808188618083AFE6B0E08C918160F3
:101D10008C938081887F808380818260808382E051
:101D200090E00E944111E6E8F0E080E197E29183C3
:101D3000808384B1866084B985B1866085B98081ED
:101D400091819695879590937B0680937A06208162
:101D500031813695279536952795A5ECB0E20E94FE
:101D60002B14929582958F7089279F708927909365
:101D700079068093780608951F920F920FB60F92FE
:101D800011242F938F939F9380918A0090918B00C1
:101D9000803D974068F080919E058F5F833380F08F
:101DA00010929E0580EB94E090938B0080938A00C4
:101DB0009F918F912F910F900FBE0F901F901895AC
:101DC00080939E059F918F912F910F900FBE0F9042
:101DD0001F90189584E398E090938B0080938A007D
:101DE00010929E050895853008F084E0E82FF0E019
:101DF000EE0FFF1FEC5AFC4F808191819093890078
:101E0000809388000895853008F084E0E82FF0E0A2
:101E1000EE0FFF1FEC5AFC4F808191819093890057
:101E20008093880084E398E090938B0080938A00ED
:101E300010929E05089508959093F6058093F505F8
:101E400008952AE530E0A901481B590BCA01829583
:101E50009295907F9827807F98278856974F8D3A44
:101E60005DE0950738F08CEA9DE0909389008093BF
:101E700088000895883E23E09207B8F788EE93E043
:101E800090938900809388000895CF92DF92EF921B
:101E9000FF92CF93DF93C0918600D0918700BC0161
:101EA000990F880B990B0E94871520E030E044E3DE
:101EB00053E40E94DD142FE832EC45EF5DE30E940D
:101EC0006B166B017C01BE0180E090E00E948515DD
:101ED0009B01AC01C701B6010E946B160E944F1511
:101EE000EAE8F0E07183608380819181DF91CF9196
:101EF000FF90EF90DF90CF9008958F929F92AF92D6
:101F0000BF92CF92DF92EF92FF92CF93DF93EC01DB
:101F100020E030E04AE754E46091A1057091A20509
:101F20008091A3059091A4050E946B164B015C0162
:101F3000BE01660F771F80E090E00E9485159B012F
:101F4000AC01C501B4010E94DD140E9456156B015D
:101F50007C01613021E07207D8F5EB01DD27BE017D
:101F6000660F771F072E000C880B990B0E948715B0
:101F70009B01AC01C501B4010E94DD140E94C21591
:101F8000DF93CF930E944F157F936F938CE494E07F
:101F90009F938F938FEB95E09F938F930E94F816FA
:101FA0008FEB95E00E94C2138DB79EB708960FB6CF
:101FB000F8949EBF0FBE8DBF8C2DDF91CF91FF9007
:101FC000EF90DF90CF90BF90AF909F908F9008954B
:101FD000DF926F93DF93CF9382E194E09F938F938F
:101FE0008FEB95E09F938F930E94F8168FEB95E00F
:101FF0000E94C2138C2D2DB73EB7285F3F4F0FB6FE
:10200000F8943EBF0FBE2DBFD8CFCF92DF92EF9294
:10201000FF920F931F93CF938C019C01220F331FCC
:10202000220F331F40E050E064E2C62E64EFD62E4C
:10203000E12CF12CC701B6010E940C14C22F822F93
:10204000932F81309140D0F50C2F10E09801220F92
:10205000331F220F331F032E000C440B550BC701F7
:10206000B6010E940C14CA01B9010E9487150E9492
:10207000C2151F92CF930E944F157F936F938CE4EC
:1020800094E09F938F938FEB95E09F938F930E94A3
:10209000F8168FEB95E00E94C2138DB79EB7089695
:1020A0000FB6F8949EBF0FBE8DBF8C2FCF911F919E
:1020B0000F91FF90EF90DF90CF9008953F93CF93D3
:1020C0001F930F9382E194E09F938F938FEB95E0A2
:1020D0009F938F930E94F8168FEB95E00E94C21396
:1020E0008C2F2DB73EB7285F3F4F0FB6F8943EBFF9
:1020F0000FBE2DBFCF911F910F91FF90EF90DF90FA
:10210000CF9008952F923F924F925F926F927F925D
:102110008F929F92AF92BF92CF92DF92EF92FF92F7
:102120000F931F93CF93DF93CDB7DEB7A2970FB670
:10213000F894DEBF0FBECDBF7C01BC0180E090E013
:102140000E9485159B01AC0160E074E284E79BE48A
:102150000E94DD1420E030E04AE754E40E94DD14E0
:102160004B015C0120E030E04AE754E40E946B162A
:1021700020E030E040E85BE30E946B162B013C015D
:102180009B01AC0160E070E08AE794E40E94DD14FA
:102190000E94C2156F8F78A389A39AA31E0125E11F
:1021A000220E311C810123E030E046E050E0C50101
:1021B000B4010E94D8166E013BE0C30ED11C86010B
:1021C00023E030E043E050E0C301B2010E94D816A2
:1021D000A501940160E070E08AE794E40E94DD14B8
:1021E0009E012F5F3F4F5901890124E030E042E01A
:1021F00050E00E94D816DF92CF923F922F92FF922A
:10220000EF9284E894E09F938F930FEB15E01F9378
:102210000F930E94F816C8010E94C2136F8D78A117
:1022200089A19AA10E9456157F936F93BF92AF9296
:1022300084ED94E09F938F931F930F930E94F81661
:10224000C8010E94C2130FB6F894DEBF0FBECDBF07
:10225000A2960FB6F894DEBF0FBECDBFDF91CF912F
:102260001F910F91FF90EF90DF90CF90BF90AF90B4
:102270009F908F907F906F905F904F903F902F90A6
:1022800008952F923F924F925F926F927F928F921A
:102290009F92AF92BF92CF92DF92EF92FF920F93F5
:1022A0001F93CF93DF93CDB7DEB7A2970FB6F89405
:1022B000DEBF0FBECDBF7C01BC0180E090E00E947C
:1022C00085159B01AC0160E074E284E79BE40E9409
:1022D000DD1420E030E04AE754E40E94DD144B01B5
:1022E0005C0120E030E04AE754E40E946B1620E0F5
:1022F00030E040E857E30E946B162B013C019B0144
:10230000AC0160E070E08AE794E40E94DD140E9472
:10231000C2156F8F78A389A39AA31E0125E1220E0F
:10232000311C810123E030E046E050E0C501B401FA
:102330000E94D8166E013BE0C30ED11C860123E03B
:1023400030E043E050E0C301B2010E94D816A5017D
:10235000940160E070E08AE794E40E94DD149E013D
:102360002F5F3F4F5901890124E030E042E050E007
:102370000E94D816DF92CF923F922F92FF92EF9257
:102380008AE095E09F938F930FEB15E01F930F93D7
:102390000E94F816C8010E94C2136F8D78A189A10E
:1023A0009AA10E9456157F936F93BF92AF928AE5D0
:1023B00095E09F938F931F930F930E94F816C80187
:1023C0000E94C2130FB6F894DEBF0FBECDBFA29617
:1023D0000FB6F894DEBF0FBECDBFDF91CF911F9136
:1023E0000F91FF90EF90DF90CF90BF90AF909F90B4
:1023F0008F907F906F905F904F903F902F900895B7
:10240000EF92FF920F931F93CF93DF93CDB7DEB779
:102410002A970FB6F894DEBF0FBECDBF8AE0EEE577
:10242000F3E0DE01119601900D928A95E1F78E019D
:102430000F5F1F4F7E018BE0E80EF11CF8018191C8
:1024400091918F010E9482100E151F05B9F72A96EF
:102450000FB6F894DEBF0FBECDBFDF91CF911F91B5
:102460000F91FF90EF900895EF92FF920F931F93BB
:10247000CF93DF93CDB7DEB72A970FB6F894DEBFC0
:102480000FBECDBF8AE0EEE5F3E0DE0111960190CC
:102490000D928A95E1F78E010F5F1F4F7E018BE051
:1024A000E80EF11C8AE494E00E94C213F8018191C5
:1024B00091918F010E9441110E151F0599F72A96DF
:1024C0000FB6F894DEBF0FBECDBFDF91CF911F9145
:1024D0000F91FF90EF9008954F925F926F927F92CD
:1024E0008F929F92AF92BF92CF92DF92EF92FF9224
:1024F000CF93DF93CDB7DEB764970FB6F894DEBF06
:102500000FBECDBF24E1E8E6F3E0DE0111960190B5
:102510000D922A95E1F725B5287F25BD25B5282BF5
:1025200025BDFC013197EE0FFF1FEE0FFF1F81E06D
:1025300090E08C0F9D1FE80FF91F80809180A28092
:10254000B380A501940160E074E284E79BE40E94FB
:10255000DD1420E030E04AE754E40E94DD146B0112
:102560007C016093A1057093A2058093A3059093CD
:10257000A40520E030E04AE754E40E946B1620E016
:1025800030E040E85BE30E946B162B013C01609356
:102590000D0670930E0680930F0690931006A70108
:1025A000960160E070E08AE794E40E94DD14609395
:1025B000B7057093B8058093B9059093BA05A30148
:1025C000920160E070E08AE794E40E94DD140E94CA
:1025D000C2150E94561570930C0660930B06C50138
:1025E000B4010E945615CB0164960FB6F894DEBF75
:1025F0000FBECDBFDF91CF91FF90EF90DF90CF90D6
:10260000BF90AF909F908F907F906F905F904F9012
:102610000C9482104F925F926F927F928F929F9252
:10262000AF92BF92CF92DF92EF92FF92CF93DF9360
:10263000CDB7DEB764970FB6F894DEBF0FBECDBF3F
:1026400024E1E8E6F3E0DE01119601900D922A956F
:10265000E1F7E1E8F0E02081287F20832081282B2A
:102660002083FC013197EE0FFF1FEE0FFF1F81E06B
:1026700090E08C0F9D1FE80FF91F80809180A28051
:10268000B380A501940160E074E284E79BE40E94BA
:10269000DD1420E030E04AE754E40E94DD146B01D1
:1026A0007C016093F1057093F2058093F30590939C
:1026B000F40520E030E04AE754E40E946B1620E085
:1026C00030E040E857E30E946B162B013C01609319
:1026D000B2057093B3058093B4059093B505A70137
:1026E000960160E070E08AE794E40E94DD14609354
:1026F000FF05709300068093010690930206A301E4
:10270000920160E070E08AE794E40E94DD140E9488
:10271000C2150E94561570939D0560939C05C501D6
:10272000B4010E945615CB0164960FB6F894DEBF33
:102730000FBECDBFDF91CF91FF90EF90DF90CF9094
:10274000BF90AF909F908F907F906F905F904F90D1
:102750000C9441119093C5008093C400E1ECF0E02B
:10276000808180618083808188608083E2ECF0E0FA
:1027700080818460808380818260808380818860A2
:1027800080830895FC012081222351F0319690919D
:10279000C00095FFFCCF2093C60021912111F7CFF7
:1027A000089587E690E00E94AA130EE813E0CFEBAD
:1027B000D5E00E94B7098091FB059091FC059F939D
:1027C0008F931F930F93DF93CF930E94F8168FEB95
:1027D00095E00E94C2138FE39CE90197F1F700C0D6
:1027E00000000F900F900F900F900F900F90E1CF7F
:1027F00097FB072E16F4009407D077FD09D00E94AE
:102800003A1407FC05D03EF4909581959F4F0895AA
:10281000709561957F4F0895052E97FB1EF40094E7
:102820000E94231457FD07D00E944E1407FC03D0CA
:102830004EF40C94231450954095309521953F4FBC
:102840004F4F5F4F089590958095709561957F4F9C
:102850008F4F9F4F0895A29FB001B39FC001A39FC8
:10286000700D811D1124911DB29F700D811D1124C9
:10287000911D0895AA1BBB1B51E107C0AA1FBB1FD6
:10288000A617B70710F0A61BB70B881F991F5A95FC
:10289000A9F780959095BC01CD010895A1E21A2E6B
:1028A000AA1BBB1BFD010DC0AA1FBB1FEE1FFF1FF4
:1028B000A217B307E407F50720F0A21BB30BE40B44
:1028C000F50B661F771F881F991F1A9469F760958B
:1028D0007095809590959B01AC01BD01CF01089545
:1028E0005058BB27AA270E9488140C9419160E94DE
:1028F0000B1638F00E94121620F039F49F3F19F49D
:1029000026F40C9408160EF4E095E7FB0C94D91508
:10291000E92F0E942A1658F3BA1762077307840733
:10292000950720F079F4A6F50C9464160EF4E09562
:102930000B2EBA2FA02D0B01B90190010C01CA0179
:10294000A0011124FF27591B99F0593F50F4503E24
:1029500068F11A16F040A22F232F342F4427585F16
:10296000F3CF469537952795A795F0405395C9F72E
:102970007EF41F16BA0B620B730B840BBAF09150E6
:10298000A1F0FF0FBB1F661F771F881FC2F70EC085
:10299000BA0F621F731F841F48F487957795679558
:1029A000B795F7959E3F08F0B0CF9395880F08F044
:1029B0009927EE0F9795879508950E94F1140C942E
:1029C00019160E94121658F00E940B1640F029F4B6
:1029D0005F3F29F00C94D91551110C9465160C9495
:1029E00008160E942A1668F39923B1F3552391F330
:1029F000951B550BBB27AA2762177307840738F06E
:102A00009F5F5F4F220F331F441FAA1FA9F335D0CA
:102A10000E2E3AF0E0E832D091505040E695001C7E
:102A2000CAF72BD0FE2F29D0660F771F881FBB1F38
:102A3000261737074807AB07B0E809F0BB0B802D16
:102A4000BF01FF2793585F4F3AF09E3F510578F042
:102A50000C94D9150C9465165F3FE4F3983ED4F3BB
:102A6000869577956795B795F7959F5FC9F7880F16
:102A7000911D9695879597F90895E1E0660F771F68
:102A8000881FBB1F621773078407BA0720F0621BF9
:102A9000730B840BBA0BEE1F88F7E09508950E9424
:102AA00056156894B1110C94651608950E9432165B
:102AB00088F09F5798F0B92F9927B751B0F0E1F0FF
:102AC000660F771F881F991F1AF0BA95C9F714C0AF
:102AD000B13091F00E946416B1E008950C94641630
:102AE000672F782F8827B85F39F0B93FCCF38695E8
:102AF00077956795B395D9F73EF490958095709545
:102B000061957F4F8F4F9F4F0895E89409C097FBC1
:102B10003EF490958095709561957F4F8F4F9F4FB4
:102B20009923A9F0F92F96E9BB279395F6958795F8
:102B300077956795B795F111F8CFFAF4BB0F11F4BB
:102B400060FF1BC06F5F7F4F8F4F9F4F16C0882362
:102B500011F096E911C0772321F09EE8872F762F98
:102B600005C0662371F096E8862F70E060E02AF0D9
:102B70009A95660F771F881FDAF7880F96958795C5
:102B800097F908950E944C1690F09F3748F49111E0
:102B900016F00C94651660E070E080E89FEB0895F5
:102BA00026F41B16611D711D811D0C94DF150C94FC
:102BB000FA1597F99F6780E870E060E00895882330
:102BC00071F4772321F09850872B762F07C0662366
:102BD00011F499270DC09051862B70E060E02AF027
:102BE0009A95660F771F881FDAF7880F9695879555
:102BF00097F908959F3F31F0915020F4879577958C
:102C00006795B795880F911D9695879597F90895C3
:102C10009FEF80EC089500240A94161617061806F4
:102C20000906089500240A941216130614060506D0
:102C30000895092E0394000C11F4882352F0BB0F61
:102C400040F4BF2B11F460FF04C06F5F7F4F8F4FC4
:102C50009F4F089557FD9058440F551F59F05F3FFF
:102C600071F04795880F97FB991F61F09F3F79F0AE
:102C700087950895121613061406551FF2CF469530
:102C8000F1DF08C0161617061806991FF1CF8695B2
:102C900071056105089408950E943216A0F0BEE700
:102CA000B91788F4BB279F3860F41616B11D672F3B
:102CB000782F8827985FF7CF869577956795B11D10
:102CC00093959639C8F30895E894BB27662777272C
:102CD000CB0197F908950E947E160C9419160E9454
:102CE0000B1638F00E94121620F0952311F00C9468
:102CF000D9150C94081611240C9465160E942A16F6
:102D000070F3959FC1F3950F50E0551F629FF0013E
:102D1000729FBB27F00DB11D639FAA27F00DB11D57
:102D2000AA1F649F6627B00DA11D661F829F2227E0
:102D3000B00DA11D621F739FB00DA11D621F839F67
:102D4000A00D611D221F749F3327A00D611D231F3D
:102D5000849F600D211D822F762F6A2F11249F578B
:102D600050409AF0F1F088234AF0EE0FFF1FBB1F8E
:102D7000661F771F881F91505040A9F79E3F51054D
:102D800080F00C94D9150C9465165F3FE4F3983EDF
:102D9000D4F3869577956795B795F795E7959F5FF7
:102DA000C1F7FE2B880F911D9695879597F9089589
:102DB000EF920F931F93CF93DF93E80147FD02C07B
:102DC00034E001C034E1042E000C550B57FF03C062
:102DD000519541955109E32E022F242FAE010E94F7
:102DE000FB18CE01DF91CF911F910F91EF900895C5
:102DF000AEE0B0E0EEEFF6E10C94EB1B0D891E891E
:102E000086E08C831A8309838FEF9FE79E838D83EF
:102E1000AE01475E5F4F6F89788DCE0101960E94AB
:102E20001A17EF81F885E00FF11F10822E96E4E06B
:102E30000C94071CABE0B0E0E0E2F7E10C94DD1B82
:102E40006C017B018A01FC0117821682838181FF5C
:102E5000CCC1CE0101963C01F6019381F70193FDAF
:102E6000859193FF81917F01882309F4BAC185324E
:102E700039F493FD859193FF81917F01853229F487
:102E8000B60190E00E94431BE7CF912C212C312CFE
:102E9000FFE1F315D8F08B3279F038F4803279F015
:102EA0008332A1F4232D20611DC08D3261F0803367
:102EB00069F4232D216016C0832D8260382EE32D06
:102EC000E4603E2E2AC0F32DF8601DC037FC2DC0F3
:102ED00020ED280F2A3040F08E32B9F436FC81C143
:102EE000232D2064322E19C036FE06C08AE0989E3B
:102EF000200D1124922E11C0EAE02E9E200D1124E7
:102F0000222EF32DF0623F2E08C08C3621F4832D43
:102F10008068382E02C0883641F4F70193FD859110
:102F200093FF81917F018111B3CF982F9F7D95549D
:102F3000933028F40C5F1F4F9FE399830DC08336B5
:102F400031F0833771F0833509F059C021C0F801A1
:102F5000808189830E5F1F4F88248394912C5301B5
:102F600013C02801F2E04F0E511CF801A080B1807F
:102F700036FE03C0692D70E002C06FEF7FEFC50120
:102F80000E94381B4C018201F32DFF773F2E16C0A3
:102F9000280122E0420E511CF801A080B18036FECB
:102FA00003C0692D70E002C06FEF7FEFC5010E9482
:102FB0002D1B4C01F32DF0683F2E820133FC1BC00A
:102FC000822D90E088169906B0F4B60180E290E078
:102FD0000E94431B2A94F4CFF50137FC859137FEFC
:102FE00081915F01B60190E00E94431B21102A9459
:102FF00021E0821A91088114910471F7E8C08436A7
:1030000011F0893641F5F80137FE07C06081718102
:10301000828193810C5F1F4F08C060817181072EF0
:10302000000C880B990B0E5F1F4FF32DFF763F2E80
:1030300097FF09C090958095709561957F4F8F4F50
:103040009F4FF0683F2E2AE030E0A3010E947F1BD3
:10305000882E861845C0853731F4232D2F7EB22E59
:103060002AE030E025C0932D997FB92E8F36C1F02C
:1030700018F4883579F0B5C0803719F0883721F019
:10308000B0C0E92FE061BE2EB4FE0DC0FB2DF46090
:10309000BF2E09C034FE0AC0292F2660B22E06C0FA
:1030A00028E030E005C020E130E002C020E132E05D
:1030B000F801B7FE07C060817181828193810C5F46
:1030C0001F4F06C06081718180E090E00E5F1F4F4E
:1030D000A3010E947F1B882E8618FB2DFF773F2EB1
:1030E00036FE0DC0232D2E7FA22E891458F434FEF7
:1030F0000BC032FC09C0832D8E7EA82E05C0B82CD3
:10310000A32C03C0B82C01C0B92CA4FE0FC0FE0133
:10311000E80DF11D8081803321F49A2D997EA92E2E
:1031200009C0A2FE06C0B394B39404C08A2D867869
:1031300009F0B394A3FC11C0A0FE06C0B21488F439
:10314000280C922C9B180EC0B21460F4B60180E2D9
:1031500090E00E94431BB394F7CFB21418F42B18DD
:1031600002C0982C212CA4FE10C0B60180E390E090
:103170000E94431BA2FE17C0A1FC03C088E790E099
:1031800002C088E590E0B6010CC08A2D867859F01F
:10319000A1FE02C08BE201C080E2A7FC8DE2B60175
:1031A00090E00E94431B891438F4B60180E390E05C
:1031B0000E94431B9A94F7CF8A94F301E80DF11D06
:1031C0008081B60190E00E94431B8110F5CF222040
:1031D00009F442CEB60180E290E00E94431B2A949B
:1031E000F6CFF6018681978102C08FEF9FEF2B9675
:1031F000E2E10C94F91BA9E0B0E0E1E0F9E10C9404
:10320000E31B6A01122FB02E2BE3201720F0FF24BE
:10321000F394F00E02C02CE3F22E0F2D27E0AE0146
:103220004F5F5F4F0E94551ABC014981842F8970FE
:10323000813031F0E1FC06C0E0FE06C090E205C03E
:103240009DE203C09BE201C090E05E2D507143FF00
:103250003CC0911102C083E001C084E0811718F4E2
:10326000212F281B01C020E051110BC0F601822F35
:1032700030E2882319F031938150FBCFC20ED11C6C
:1032800020E0992329F0D6019C93F60131966F0135
:10329000C6010396E2FE0AC03EE4D6013C9341E437
:1032A00011964C93119712963C9306C03EE6F60198
:1032B000308341E641833283FC01322F40E23323E5
:1032C00009F442C041933150FACF42FF44C09111FA
:1032D00002C083E001C084E0811718F4212F281B6D
:1032E00001C020E051110BC0F601822F30E288238B
:1032F00019F031938150FBCFC20ED11C20E09923ED
:1033000029F0D6019C93F60131966F01C601039610
:10331000E2FE0BC039E4D6013C933EE411963C93A7
:10332000119736E412963C9307C039E6F6013083D4
:103330003EE6318336E63283FC01322F40E233230E
:1033400019F041933150FBCFFC01E20FF11D1082C7
:103350008EEF9FEFA6C021E030E0911102C020E087
:1033600030E0161617061CF4FB01319602C0E1E0AE
:10337000F0E02E0F3F1FBB2021F0EB2DF0E0319647
:1033800002C0E0E0F0E02E0F3F1FE12FF0E02E172B
:103390003F071CF4121B212F01C020E08E2D8871E5
:1033A00059F4F601822F30E2882319F031938150CD
:1033B000FBCFC20ED11C20E0992329F0D6019C93AB
:1033C000F60131966F0151110BC0F601822F90E387
:1033D000882319F091938150FBCFC20ED11C20E0BD
:1033E0000F2D060F9A81342F307144FF03C09133A3
:1033F00009F40150101624F4093018F008E001C057
:1034000001E0AB0177FF02C040E050E0FB01E41BAC
:10341000F50BA1E0B0E0AC0FBD1FEA0FFB1F8EE281
:10342000A82E4B01801A91080B2D10E011950195E3
:1034300011094F3FBFEF5B0721F4D601AC92119603
:103440006D01641775072CF08416950614F48181BC
:1034500001C080E3415051093196D60111967D019A
:103460004017510724F0D6018C936701E2CF64170F
:10347000750739F4963320F4953319F4311101C0EE
:1034800081E3F6018083F701822F90E2882319F00F
:1034900091938150FBCFF701E20FF11D108280E084
:1034A00090E02996ECE00C94FF1B283008F027E010
:1034B0003327DA01990F311D87FD91600096610570
:1034C000710539F432602E5F3D9330E32A95E1F7C0
:1034D00008959F3F30F080387105610509F03C5F29
:1034E0003C5F3D93913008F08068911DDF93CF934E
:1034F0001F930F93FF92EF92192F987F9695E92FC4
:1035000096959695E90FFF27EE53FF4F992733279E
:10351000EE24FF24A701E70105900894079428F4FE
:10352000360FE71EF81E491F511D660F771F881FB3
:10353000991F0694A1F70590079428F4E70EF81E4A
:10354000491F561FC11D770F881F991F661F0694BC
:10355000A1F70590079428F4F80E491F561FC71FBE
:10356000D11D880F991F661F771F0694A1F705903C
:10357000079420F4490F561FC71FD81F990F661FC5
:10358000771F881F0694A9F784911095177041F052
:10359000D695C79557954795F794E7941A95C1F72F
:1035A000E8E6F0E068941590159135916591959154
:1035B00005907FE27395E118F10A430B560BC90B96
:1035C000D009C0F7E10CF11E431F561FC91FD01DC3
:1035D0007EF4703311F48A95E6CFE894015030F010
:1035E000080F0AF40027021708F4202F2395022F52
:1035F0007A3328F079E37D932A95E9F710C07D931B
:103600002A9589F606949795679537951795179497
:10361000E118F10A430B560BC90BD00998F023951A
:103620007E9173957A3308F070E37C932013B8F79A
:103630007E9170617D9330F0839571E37D9370E3AB
:103640002A95E1F71124EF90FF900F911F91CF91F0
:10365000DF91992787FD90950895FC0105906150B1
:1036600070400110D8F7809590958E0F9F1F089598
:10367000FC016150704001900110D8F78095909541
:103680008E0F9F1F08950F931F93CF93DF93FB011E
:10369000238121FD03C08FEF9FEF2CC022FF16C0B6
:1036A00046815781248135814217530744F4A08114
:1036B000B1819D012F5F3F4F318320838C93268101
:1036C00037812F5F3F4F3783268314C08B01EC0176
:1036D000FB010084F185E02D0995892BE1F6D801E5
:1036E00016968D919C911797019617969C938E93A1
:1036F0001697CE01DF91CF911F910F910895FA0196
:10370000AA27283051F1203181F1E8946F936E7F20
:103710006E5F7F4F8F4F9F4FAF4FB1E03ED0B4E011
:103720003CD0670F781F891F9A1FA11D680F791F52
:103730008A1F911DA11D6A0F711D811D911DA11D63
:1037400020D009F468943F912AE0269F1124301973
:10375000305D3193DEF6CF010895462F4770405D0E
:103760004193B3E00FD0C9F7F6CF462F4F70405DBD
:103770004A3318F0495D31FD4052419302D0A9F718
:10378000EACFB4E0A6959795879577956795BA9512
:10379000C9F700976105710508959B01AC010A2ED8
:1037A00006945795479537952795BA95C9F7620FAF
:1037B000731F841F951FA01D08952F923F924F9253
:1037C0005F926F927F928F929F92AF92BF92CF92B1
:1037D000DF92EF92FF920F931F93CF93DF93CDB7BA
:1037E000DEB7CA1BDB0B0FB6F894DEBF0FBECDBF32
:1037F00009942A88398848885F846E847D848C8403
:103800009B84AA84B984C884DF80EE80FD800C810B
:103810001B81AA81B981CE0FD11D0FB6F894DEBFEE
:0C3820000FBECDBFED010895F894FFCF5E
:10382C00010064B900FFB3048000060600B6012550
:10383C0000B0016800CC010400B10600151C1C830B
:10384C00AA00C0065050013C1E0800B407024000FC
:10385C002A2A0D7800E022020A111D2335414B4B18
:10386C00423A271B080903020A111D2335414B4B11
:10387C00423A271B0809030001003A0155003601A2
:10388C00C00035010000440200020011009629001E
:10389C0032A00060000000000000005F0000000784
:1038AC00000700147F147F14242A7F2A1223130884
:1038BC00646236495522500005030000001C224169
:1038CC00000041221C0014083E081408083E080899
:1038DC000050300000080808080800606000002054
:1038EC00100804023E5149453E00427F40004261AF
:1038FC005149462141454B311814127F102745453B
:10390C0045393C4A49493001710905033649494951
:10391C0036064949291E003636000000563600008E
:10392C000814224100141414141400412214080227
:10393C0001510906324979413E7E1111117E7F49B0
:10394C004949363E414141227F4141221C7F494930
:10395C0049417F090909013E4149497A7F08080814
:10396C007F00417F41002040413F017F08142241EC
:10397C007F404040407F020C027F7F0408107F3E56
:10398C004141413E7F090909063E4151215E7F09B3
:10399C00192946464949493101017F01013F4040FF
:1039AC00403F1F2040201F3F4038403F6314081405
:1039BC006307087008076151494543007F41410086
:1039CC0002040810200041417F000402010204405F
:1039DC0040404040000102040020545454787F4879
:1039EC004444383844444420384444487F38545480
:1039FC005418087E0901020C5252523E7F080404EE
:103A0C007800447D40002040443D007F1028440055
:103A1C0000417F40007C041804787C08040478384A
:103A2C00444444387C14141408081414187C7C087E
:103A3C000404084854545420043F4440203C404063
:103A4C00207C1C2040201C3C4030403C442810284A
:103A5C00440C5050503C4464544C440008364100D3
:103A6C0000007F0000004136080010080810080014
:103A7C0006090906B80B5A0AFC08D007DC05010038
:103A8C0008004000000100040000803F00000041DD
:103A9C000000804200008043000080445061757338
:103AAC0065642E00556E7061757365642E00256417
:103ABC00200A0D0057656C636F6D6520746F205282
:103ACC006F626F58796C6F4865726F2100506C6132
:103ADC00636520746865206B65797320696E20744A
:103AEC00686520636F6E736F6C652C00666163652F
:103AFC002074686520636F6E74726F6C6C657220D5
:103B0C006174207468650073637265656E2C207433
:103B1C0068656E20707265737320506C617921003A
:103B2C0043686F6F736520796F757220736F6E6762
:103B3C00210043616E6E6F742067656E65726174EF
:103B4C0065202575487A20696E2031206379636C75
:103B5C00652073696E63652069742074616B65738D
:103B6C00202575207469636B73200A0047656E65A8
:103B7C0072617465202575487A2050574D20736901
:103B8C00676E616C2062792074726967676572690F
:103B9C006E67206576657279202575207469636B74
:103BAC0073200A0057697468207072657363616CC6
:103BBC006572206469766973696F6E206F66202563
:103BCC0075200A74696D6572302072756E73206190
:103BDC0074202573207469636B732F6D7365632078
:103BEC00616E64202573206379636C65732F736534
:103BFC00632E0A004F6E65207469636B2069732015
:103C0C00257320757365632E2074696D6572302081
:103C1C006F766572666C6F77732065766572792046
:103C2C002575206D7365632E0A00576974682070C2
:103C3C0072657363616C6572206469766973696F10
:103C4C006E206F66202575200A54696D65723120CF
:103C5C0072756E73206174202573207469636B73A5
:103C6C002F6D73656320616E642025732063796307
:103C7C006C65732F7365632E0A004F6E6520746933
:103C8C00636B20697320257320757365632E205434
:103C9C00696D657231206F766572666C6F77732013
:103CAC006576657279202575206D7365632E0A0023
:00000001FF
